:020000040810E2
:1000000000800410A5591008F559100889591008E6
:10001000995910089D591008A159100800000000B6
:10002000000000000000000000000000F55910086A
:10003000F559100800000000F5591008F55910088E
:10004000F5591008F5591008F5591008F559100818
:10005000F5591008F5591008F5591008F559100808
:10006000F5591008F5591008F5591008F5591008F8
:10007000F5591008F5591008F5591008F5591008E8
:10008000F5591008F5591008F5591008F5591008D8
:10009000F5591008F5591008F5591008F5591008C8
:1000A000F5591008512A1008F5591008F55910088B
:1000B000F5591008F5591008F5591008F5591008A8
:1000C000F5591008F5591008F5591008F559100898
:1000D000F5591008F5591008F5591008F559100888
:1000E000F5591008F559100800000000F5591008DE
:1000F000F5591008F5591008F5591008F559100868
:10010000F5591008F5591008F5591008F559100857
:10011000F5591008F5591008692F1008812F10089B
:10012000F5591008F5591008F5591008F559100837
:10013000F5591008F5591008F5591008F559100827
:10014000F5591008F55910080000000000000000E3
:10015000F5591008F5591008F5591008F559100807
:10016000F5591008F5591008F5591008F5591008F7
:10017000F5591008F5591008F5591008000000004D
:10018000F5591008F5591008F5591008F5591008D7
:10019000F5591008F5591008F5591008F5591008C7
:1001A000F5591008F5591008F5591008F5591008B7
:1001B000F5591008F5591008F5591008F5591008A7
:1001C000F5591008F5591008F5591008F559100897
:1001D000F5591008F5591008F5591008F559100887
:1001E000F5591008F5591008F5591008F559100877
:1001F000F5591008F5591008F5591008F559100867
:10020000F5591008F5591008F5591008F559100856
:10021000F5591008F5591008F5591008F559100846
:10022000F5591008F5591008F5591008F559100836
:10023000F5591008F5591008F5591008F559100826
:10024000F5591008F5591008F5591008F559100816
:10025000F5591008F5591008F5591008F559100806
:10026000F5591008F5591008F5591008F5591008F6
:10027000F5591008F5591008F5591008F5591008E6
:10028000F5591008F5591008F5591008000000003C
:08029000F5591008F55910089A
:1002980010B5054C237833B9044B13B10448AFF3B8
:1002A80000800123237010BDF0180010000000002A
:1002B800C09B100808B5034B1BB103490348AFF3B3
:1002C800008008BD00000000F4180010C09B100852
:1002D80070B54FF0FF0C4CF4E06C1CEA11541DBFD4
:1002E8001CEA135594EA0C0F95EA0C0F00F0DEF89F
:1002F8002C4481EA030621EA4C5123EA4C5350EA84
:10030800013518BF52EA033541F4801143F48013D4
:1003180038D0A0FB02CE4FF00005E1FB02E506F065
:100328000042E0FB03E54FF00006E1FB03569CF0BA
:10033800000F18BF4EF0010EA4F1FF04B6F5007FC0
:1003480064F5407404D25FEA4E0E6D4146EB060632
:1003580042EAC62141EA55514FEAC52040EA5E50BB
:100368004FEACE2EB4F1FD0C88BFBCF5E06F1ED865
:10037800BEF1004F08BF5FEA500E50F1000041EB9C
:10038800045170BD06F0004646EA010140EA020049
:1003980081EA0301B4EB5C04C2BFD4EB0C0541EA6B
:1003A800045170BD41F480114FF0000E013C00F380
:1003B800AB8014F1360FDEBF002001F0004170BDA4
:1003C800C4F10004203C35DA0C341BDC04F11404BD
:1003D800C4F1200500FA05F320FA04F001FA05F249
:1003E80040EA020001F0004221F0004110EBD37016
:1003F80021FA04F642EB06015EEA430E08BF20EA42
:10040800D37070BDC4F10C04C4F1200500FA04F3E4
:1004180020FA05F001FA04F240EA020001F0004176
:1004280010EBD37041F100015EEA430E08BF20EAE9
:10043800D37070BDC4F1200500FA05F24EEA020E31
:1004480020FA04F301FA05F243EA020321FA04F060
:1004580001F0004121FA04F220EA020000EBD37017
:100468005EEA430E08BF20EAD37070BD94F0000F17
:100478000FD101F00046400041EB010111F4801F4B
:1004880008BF013CF7D041EA060195F0000F18BFFC
:10049800704703F00046520043EB030313F4801F38
:1004A80008BF013DF7D043EA0603704794EA0C0FF2
:1004B8000CEA135518BF95EA0C0F0CD050EA410608
:1004C80018BF52EA4306D1D181EA030101F0004185
:1004D8004FF0000070BD50EA410606BF10461946AD
:1004E80052EA430619D094EA0C0F02D150EA0136B9
:1004F80013D195EA0C0F05D152EA03361CBF1046FA
:1005080019460AD181EA030101F0004141F0FE4198
:1005180041F470014FF0000070BD41F0FE4141F41C
:10052800780170BD81F0004102E000BF83F0004314
:1005380030B54FEA41044FEA430594EA050F08BF76
:1005480090EA020F1FBF54EA000C55EA020C7FEA3A
:10055800645C7FEA655C00F0E2804FEA5454D4EBB7
:100568005555B8BF6D420CDD2C4480EA020281EA81
:10057800030382EA000083EA010180EA020281EAB9
:100588000303362D88BF30BD11F0004F4FEA01310B
:100598004FF4801C4CEA113102D0404261EB41011A
:1005A80013F0004F4FEA03334CEA133302D05242A0
:1005B80063EB430394EA050F00F0A780A4F101045C
:1005C800D5F1200E0DDB02FA0EFC22FA05F2801896
:1005D80041F1000103FA0EF2801843FA05F359417C
:1005E8000EE0A5F120050EF1200E012A03FA0EFCFB
:1005F80028BF4CF0020C43FA05F3C01851EBE37125
:1006080001F0004507D54FF0000EDCF1000C7EEB41
:1006180000006EEB0101B1F5801F1BD3B1F5001F7F
:100628000CD349085FEA30004FEA3C0C04F101049E
:100638004FEA445212F5800F80F09A80BCF1004FC7
:1006480008BF5FEA500C50F1000041EB045141EA49
:10065800050130BD5FEA4C0C404141EB0101013C12
:1006680028BFB1F5801FE9D291F0000F04BF014601
:100678000020B1FA81F308BF2033A3F10B03B3F1D3
:1006880020020CDA0C3208DD02F1140CC2F10C0263
:1006980001FA0CF021FA02F10CE002F11402D8BFC1
:1006A800C2F1200C01FA02F120FA0CFCDCBF41EA8D
:1006B8000C019040E41AA2BF01EB0451294330BD5C
:1006C8006FEA04041F3C1CDA0C340EDC04F1140439
:1006D800C4F1200220FA04F001FA02F340EA030010
:1006E80021FA04F345EA030130BDC4F10C04C4F156
:1006F800200220FA02F001FA04F340EA0300294636
:1007080030BD21FA04F0294630BD94F0000F83F47F
:10071800801306BF81F480110134013D4EE77FEA62
:10072800645C18BF7FEA655C29D094EA050F08BFAE
:1007380090EA020F05D054EA000C04BF194610468F
:1007480030BD91EA030F1EBF0021002030BD5FEAD3
:10075800545C05D14000494128BF41F0004130BDFB
:1007680014F580043CBF01F5801130BD01F000454F
:1007780045F0FE4141F470014FF0000030BD7FEAC2
:10078800645C1ABF194610467FEA655C1CBF0B46BD
:10079800024650EA013406BF52EA033591EA030FD4
:1007A80041F4002130BD00BF90F0000F04BF0021CC
:1007B800704730B54FF4806404F132044FF00005FF
:1007C8004FF0000150E700BF90F0000F04BF002178
:1007D800704730B54FF4806404F1320410F00045DE
:1007E80048BF40424FF000013EE700BF42004FEAD9
:1007F800E2014FEA31014FEA02701FBF12F07F4356
:1008080093F07F4F81F06051704732F07F4208BF0C
:10081800704793F07F4F04BF41F40021704730B513
:100828004FF4607401F0004521F000411CE700BF5F
:1008380050EA010208BF704730B54FF000050AE0E2
:1008480050EA010208BF704730B511F0004502D5E3
:10085800404261EB41014FF4806404F132045FEAE5
:10086800915C3FF4D8AE4FF003025FEADC0C18BF8E
:1008780003325FEADC0C18BF033202EBDC02C2F180
:10088800200300FA03FC20FA02F001FA03FE40EA12
:100898000E0021FA02F11444BDE600BF4FF0FF3C00
:1008A80006E000BF4FF0010C02E000BF4FF0010C62
:1008B8004DF804CD4FEA410C7FEA6C5C4FEA430CDB
:1008C80018BF7FEA6C5C1BD001B050EA410C0CBF2A
:1008D80052EA430C91EA030F02BF90EA020F00208C
:1008E800704710F1000F91EA030F58BF994208BFF3
:1008F80090422CBFD8176FEAE37040F001007047B0
:100908004FEA410C7FEA6C5C02D150EA013C07D106
:100918004FEA430C7FEA6C5CD6D152EA033CD3D051
:100928005DF8040B704700BF8446104662468C464B
:100938001946634600E000BF01B5FFF7B7FF00287E
:1009480048BF10F1000F01BD4DF808EDFFF7F4FFA7
:100958000CBF012000205DF808FB00BF4DF808ED32
:10096800FFF7EAFF34BF012000205DF808FB00BF55
:100978004DF808EDFFF7E0FF94BF012000205DF877
:1009880008FB00BF4DF808EDFFF7CEFF94BF01202C
:1009980000205DF808FB00BF4DF808EDFFF7C4FF25
:1009A80034BF012000205DF808FB00BF4FEA410278
:1009B80012F5001215D211D56FF47873B3EB6252A9
:1009C80012D94FEAC12343F0004343EA505311F0D0
:1009D800004F23FA02F018BF404270474FF0000062
:1009E800704750EA013005D111F0004008BF6FF0A0
:1009F800004070474FF00000704700BF4A0011D216
:100A080012F5001211D20DD56FF47873B3EB625260
:100A18000ED44FEAC12343F0004343EA505323FA6C
:100A280002F070474FF00000704750EA013002D1E1
:100A38004FF0FF3070474FF0000070474FEA410217
:100A4800B2F1E04324BFB3F5001CDCF1FE5C0DD924
:100A580001F0004C4FEAC0024CEA5070B2F1004F6E
:100A680040EB830008BF20F00100704711F0804F71
:100A780021D113F13872BCBF01F00040704741F436
:100A880080114FEA5252C2F11802C2F1200C10FA3A
:100A98000CF320FA02F018BF40F001004FEAC1231E
:100AA8004FEAD32303FA0CFC40EA0C0023FA02F3C2
:100AB8004FEA4303CCE77FEA625307D150EA013398
:100AC8001EBF4FF0FE4040F44000704701F0004068
:100AD80040F0FE4040F40000704700BF53B94AB9E7
:100AE800002908BF00281CBF4FF0FF314FF0FF302E
:100AF80000F074B9ADF1080C6DE904CE00F006F809
:100B0800DDF804E0DDE9022304B070472DE9F04781
:100B1800089D04468E46002B4DD18A42944669D9D9
:100B2800B2FA82F252B101FA02F3C2F1200120FABC
:100B380001F10CFA02FC41EA030E94404FEA1C480A
:100B4800210CBEFBF8F61FFA8CF708FB16E341EA06
:100B5800034306FB07F199420AD91CEB030306F18C
:100B6800FF3080F01F81994240F21C81023E6344AD
:100B78005B1AA4B2B3FBF8F008FB103344EA034451
:100B880000FB07F7A7420AD91CEB040400F1FF3366
:100B980080F00A81A74240F207816444023840EAA3
:100BA8000640E41B00261DB1D4400023C5E90043DC
:100BB8003146BDE8F0878B4209D9002D00F0EF805F
:100BC8000026C5E9000130463146BDE8F087B3FA92
:100BD80083F6002E4AD18B4202D3824200F2F9807A
:100BE800841A61EB030301209E46002DE0D0C5E97D
:100BF800004EDDE702B9FFDEB2FA82F2002A40F0C9
:100C08009280A1EB0C014FEA1C471FFA8CFE0126CB
:100C1800200CB1FBF7F307FB131140EA01410EFB6F
:100C280003F0884208D91CEB010103F1FF3802D216
:100C3800884200F2CB804346091AA4B2B1FBF7F010
:100C480007FB101144EA01440EFB00FEA64508D933
:100C58001CEB040400F1FF3102D2A64500F2BB8070
:100C68000846A4EB0E0440EA03409CE7C6F12007BF
:100C7800B34022FA07FC4CEA030C20FA07F401FA05
:100C880006F31C43F9404FEA1C4900FA06F3B1FB8E
:100C9800F9F8200C1FFA8CFE09FB181140EA0141F3
:100CA80008FB0EF0884202FA06F20BD91CEB010190
:100CB80008F1FF3A80F08880884240F28580A8F1E8
:100CC80002086144091AA4B2B1FBF9F009FB10113A
:100CD80044EA014100FB0EFE8E4508D91CEB0101D8
:100CE80000F1FF346CD28E456AD90238614440EA7B
:100CF8000840A0FB0294A1EB0E01A142C846A646FB
:100D080056D353D05DB1B3EB080261EB0E0101FA83
:100D180007F722FA06F3F1401F43C5E900710026E0
:100D28003146BDE8F087C2F12003D8400CFA02FC36
:100D380021FA03F3914001434FEA1C471FFA8CFE46
:100D4800B3FBF7F007FB10360B0C43EA064300FB36
:100D58000EF69E4204FA02F408D91CEB030300F1D4
:100D6800FF382FD29E422DD9023863449B1B89B28B
:100D7800B3FBF7F607FB163341EA034106FB0EF314
:100D88008B4208D91CEB010106F1FF3816D28B42C1
:100D980014D9023E6144C91A46EA004638E72E468D
:100DA800284605E70646E3E61846F8E64B45A9D285
:100DB800B9EB020864EB0C0E0138A3E74646EAE7F4
:100DC800204694E74046D1E7D0467BE7023B6144A2
:100DD80032E7304609E76444023842E7704700BF0B
:100DE8008A498B488B4B8C4A30B58C6D40F2FF7525
:100DF80085B024F440348C658C6D8C65D1F88040C6
:100E080044F02004C1F88040D1F8884044F0807450
:100E1800C1F88840D1F8804024F02004C1F880400F
:100E2800D1F8884024F08074C1F88840D1F8D840BF
:100E380044F02004C1F8D840D1F8E04044F0807470
:100E4800C1F8E0400021846B24F020048463046C22
:100E580024F080740464D0F8984044F02004C0F86A
:100E68009840D0F8A04044F08074C0F8A0401D60BD
:100E78006A4C156059605868506040F237509C6061
:100E88009C689460D860664CD868D0601C616548DE
:100E98001C69146158615C69546198616FF07C4009
:100EA8009C699461D961DC69D46119621C6A146215
:100EB80058625C6A546219631C6B146359635C6BF7
:100EC800546399639C6B9463D963DC6BD4631C6C27
:100ED8000394D964DC6CD46419661C6E1466596674
:100EE8005C6E546699669C6E9466D966DC6ED466B0
:100EF800D3F880400394D3F884400394D3F888400F
:100F08000394D3F88C400394D2F880400394D2F829
:100F180084400394D2F888400394D2F88C40039418
:100F2800C3F8A010D3F8A040C2F8A040C3F8B0108E
:100F3800D3F8B040C2F8B040C3F8B400D3F8B44016
:100F4800C2F8B440C3F8A410D3F8A440C2F8A4402F
:100F5800C3F8B810D3F8B840C2F8B840C3F8BC001A
:100F6800D3F8BC403048C2F8BC40C3F8C010D3F82E
:100F7800C030C2F8C0304FF414038360C3680393D1
:100F880003690393039B13B1039B01330393214923
:100F98000B68DC04FCD58B681E4A43F000438B6069
:100FA8009368002BFCDB93681A4943F001039360B4
:100FB8000B68D807FCD518490B68DA04FCD58B6890
:100FC800154A43F000438B609368002BFCDB936861
:100FD800114943F0010393600B68DB07FCD501243A
:100FE800124D0223124A13490920009400F046FCCE
:100FF800009402232870104A0A20104900F03EFC91
:101008000F4B68701C7005B030BD00BF004402581B
:101018000045025800200240002102400001001053
:1010280021000700DBB66D1B0023024014190010D5
:101038001819001040200240641900104021024095
:101048000D1900103E4B1B78002B70D03D4B1B78C0
:10105800002B70D0F0B53C4E355C0F2D69D80128B7
:101068006BD03A4C3A4B022818BF1C46236B05F14B
:10107800010C384F132923F03F0328BF13212363A2
:101088005FFA8CF39C4603EB43035B00A7FB037EEC
:10109800314FA7FB0C7C0EF4FE67A7EB1E1E276BD7
:1010A8004FEA9C0C3D432746A3EB4E0347F8305FBD
:1010B8001F2505FA03FE57F82C5001FA03F325EA19
:1010C8000E052B4347F82C3000EBC003375C00EBD0
:1010D8004303CD181F44012303FA01F1E3691943BF
:1010E8001E4B03EB8703E1611360345C1C4B013436
:1010F8001968E4B21B4B34541E5C01EB8500731E67
:101108000146E430062BC2E901100ED81823164A0E
:1011180013FB06231A68002022F001021A605C60A3
:101128001A6842F001021A60F0BD0F4BF2E7FF2087
:101138007047FD20F0BDFE2070470C4C96E700BFBD
:101148000D1900100C190010101900100060025839
:101158000020024089888888CDCCCCCC1819001092
:10116800080000101419001010000240002102406D
:10117800014B01221A707047FC190010134B1B78A1
:10118800FBB1134B1B78F3B1022818D8114B01F1AE
:10119800080230B51B6800F1720483B0013003EB1C
:1011A80084050B1DC0B205F10C04CD6000920A46FF
:1011B8000C61094901F054FC002003B030BDFD204A
:1011C8007047FF207047FE20704700BFFC190010D1
:1011D8000C19001008000010180D8F001C4A002080
:1011E8001C4B1D4930B5D2F8904041F22C0583B014
:1011F80024F00054C2F89040D2F8E84044F000547B
:10120800C2F8E84040F2FF749A6C22F000529A64E7
:10121800D3F8A82042F00052C3F8A8204FF4403376
:101228000D6048608C604C61C824CB63012308645E
:1012380048640868094A40F00300086043200849E8
:10124800009400F0E5FA074B187003B030BD00BFFA
:1012580000440258004502580074004008740040D9
:10126800780E0010171900105E4A5F48116D5F4B29
:1012780021F0405170B511650325116D40F63326F4
:101288005B4C1165D2F8941041F48071C2F8941047
:10129800D2F8941021F48071C2F89410D2F8EC10AE
:1012A80041F48071C2F8EC10D2F8141121F4807165
:1012B800C2F81411D2F81411C2F81411816B21F478
:1012C80080718163D0F8981041F48071C0F898104B
:1012D800D2F8E01041F00801C2F8E0100021026CD9
:1012E80022F008020264D0F8A02042F00802C0F8F8
:1012F800A02042F203001A6822F00C021A601A6851
:1013080042F008021A609A6842F00C029A60DA68A1
:1013180022F00C02DA60DA68DA601A6A22F0F00267
:101328001A621A6A42F090021A621A6822F00302DC
:101338001A601A6842F002021A609A682A439A6090
:10134800DA6822F00302DA60DA6842F00202DA6050
:101358001A6A22F00F021A621A6A42F009021A6225
:101368000122A561E66021616161A0612148224BEB
:10137800E06122482262A0620220A16460652920FF
:10138800A165E2651022C4F880004FF4801019802E
:10139800C4F8840040305A806FF06043C4F8880075
:1013A800C0221748C4F89030C4F8A0003020154B6C
:1013B80018804FF43070C4F8AC20134BC4F8B00058
:1013C800B020C4F8BC101880104B1148C4F8C030C5
:1013D800C4F8C81008F0E8FBA36923F00303A3616D
:1013E80070BD00BF0044025800450258000C025866
:1013F80000A00040030A0004081A00100000FFFFC4
:10140800C00000010C1A00100E1A0010C002106073
:1014180000AC0040184B5A5C0F2A2BD810B4C9B145
:10142800164A40F060405C78528802EB4402144C43
:1014380092B244F8220004EB820258781030C0B20D
:101448005060585C421C00EB01105A54C0B25DF861
:10145800044B7047094A93F800C01488094A644449
:1014680002EA0040064A40EA0C0040F0605042F8A8
:101478002400E6E7FF207047001A0010081A001041
:1014880000AC00400000FF072DE9F041314D324C1F
:10149800B5F800C0314F0CEB800C314E54F82C508D
:1014A80004EB8C0E069CC5F3807825F0604584F823
:1014B80000800D60BEF8061001F00F017C5C14700E
:1014C800765C6EB30EF108050EF10C0E4FEA8C0C2B
:1014D80043EA0501B3EB0E02C1F3020118BF012272
:1014E800002918BF00224AB3721E0B2A26D94FEAD8
:1014F800560E1C4C1A4603EBCE0EE41A02EB0C01F6
:10150800214491ED007BA2EC027B7245F6D136F0C6
:10151800FE0106F0FE0203D055F8221043F822100F
:101528004409114900F01F00012251F8243002FA41
:1015380000F0034341F82430BDE8F0811A46094C15
:1015480003EB8603A41A6444115942F8041B9A4217
:10155800FAD1E5E70C1A001000AC0040200000109A
:101568001000001008AC004098A0004020280FD8B8
:101578004109084A012300F01F0002EB810203FA27
:1015880000F0D2F89830184214BF012000207047AC
:101598000020704700A00040044B18780F2802D89C
:1015A800421C1A707047FF20704700BF041A0010D1
:1015B8002028F0B59DF814504AD82D4C2D4E24887B
:1015C80004EB800406EB840E002D3DD021F0604131
:1015D80041EA857103F00F030EF1080C41F0004158
:1015E80046F82410190441EA0061CEF80410224993
:1015F800CC5CF4B1611E131D9C4518BF0B2929D979
:101608004CEA0201490725D14FEA540E13466146B8
:1016180002EBCE0EB3EC027B7345A1EC027BF9D151
:1016280034F0FE0104F0FE0303D052F823204CF8F6
:10163800232012490122D1F8D04002FA00F31046C3
:101648002343C1F8D030F0BD0D4F07EA8141BFE711
:101658000020F0BD0EF1040102EB840253F8044CA3
:101668009A4203F1040341F8044FF7D1E1E700BFC0
:101678000E1A001000AC00401000001000A000403E
:101688000000FC1F30B4244A0120244C0421244BC0
:1016980014604FF480449060D16041F2120194616B
:1016A8004FF000541A691F4822F007021E4D1A61B4
:1016B80018611A681D4842F480321A601A6822F0CC
:1016C80080721A601A6822F080621A601A6822F022
:1016D80080521A60164A99624FF48871D8621120B4
:1016E8001D639A631022DC649861D9611A621A68D2
:1016F80042F080721A601A6842F080621A601A68B2
:101708009201FCD50B4A132111601A6942F00302B9
:1017180030BC1A61704700BF0048025820C302F06D
:10172800004402580032A0503102030388080B001D
:101738003106030300200052334B344AD3F880109B
:1017480041F00301C3F88010D3F8801021F00301A1
:10175800C3F88010D96F41F01001D967D96F21F013
:101768001001D967D96F41F00101D967D96F21F00C
:101778000101D967D96F41F40011D967D96F21F4F4
:101788000011D967D3F8D41041F00101C3F8D4107F
:10179800D3F8D41041F01001C3F8D410D3F8D810FE
:1017A80041F00101C3F8D810D3F8D81041F0020174
:1017B800C3F8D810536B23F001035363536B23F022
:1017C80010035363936B23F001039363936B23F02C
:1017D80002039363D2F8943043F00103C2F89430C3
:1017E800D2F8943043F01003C2F89430D2F898300D
:1017F80043F00103C2F89830D2F8983043F002035E
:10180800C2F89830704700BF00440258004502589B
:10181800F0B4174EBDF8107096F800C0BCF1070F71
:1018280023D80CF1FF34062C1CD81825114C15FBB5
:101838000C44114D05EB8C054FEAC32C4CEA43339D
:1018480043F4A863236000236760A260E1606361DA
:101858002860236843F0010323603078431C337009
:10186800F0BC7047044D034CE6E7FF20F0BC70471E
:10187800101A00101000024000080240F0B4174E81
:10188800BDF810703478072C24D803F0030C631EBD
:10189800062B1CD81825124B15FB0433114D05EBEC
:1018A80084054FEACC2444EA4C3C4CF4A0641C6008
:1018B8005F609960DA6000225A6128601A6842F015
:1018C80001021A603078431C3370F0BC7047054D34
:1018D800034BE6E7FF20F0BC704700BF101A00106A
:1018E8001000024000080240134B144903F5006041
:1018F800C91A00B55A5843F8042B8342FAD1104A42
:1019080010490B46013104321B78B1F1026F03F024
:10191800030EC3F3810CC3F301104FEA931302F8CB
:1019280008EC02F807CC02F8060C02F8053CE8D1EE
:1019380000205DF804FB00BF141A001000001E0808
:1019480038220010E0FF1F08724B4FF400022DE907
:10195800F043C3F88420BFF34F8FBFF36F8F4FF46A
:101968008002C3F88420BFF34F8FBFF36F8F4FF00F
:101978000072C3F88020BFF34F8FBFF36F8F664CA0
:1019880040F2B4736549664AC4F80411C4F80421E6
:10199800C4F80C31D4F810315F07FBD440F232732D
:1019A8006049614A5C48614DC4F80C3151F8203CEB
:1019B80002F12004136051F81C3C536051F8183CA4
:1019C800936051F8143CD36051F8103C136151F8FE
:1019D8000C3C536151F8083C936151F8043CD361C5
:1019E800D0F810315E07FBD4AA4202D0203122463B
:1019F800DCE7DFF844E14E4BF4460EF1200413F81F
:101A0800105C103313F81F0CAD0713F81E1C800769
:101A180013F81D2C890713F81C6C00EB950013F8BC
:101A28001B5C920713F8197C01EB900113F81A0C50
:101A3800B60713F8189C02EB910213F8178CAD0740
:101A480006EB920213F8156C800705EB920213F867
:101A5800145CB90713F8167C00EB920213F8130C08
:101A68004FEA897901EB920213F8121C4FEA887841
:101A780009EB920913F8112CBF0708EB9908B60770
:101A880007EB9807AD0706EB9706800705EB960569
:101A9800890700EB9500920701EB900102EB910298
:101AA8004CF8042BA445AAD1DEF8041040F2327099
:101AB800204B194AC2F80C01DEF80000C3F8E41FF5
:101AC800DEF80810C3F8E00FC3F8E81FDEE90301E9
:101AD800C3F8EC0FC3F8F01FDEF81C10DEE9054070
:101AE800C3F8FC1FC3F8F44FC3F8F80FD2F810314D
:101AF8005B07FBD43123C2F80C31064B4FF0007260
:101B08001A604FF480025A604FF400025A60BDE830
:101B1800F08300BF00E100E0002000522301674588
:101B2800AB89EFCD341A001000001E08E0071E082C
:101B38004422001000F01F0814220010A54BA648EC
:101B4800D3F8E020A549F0B440F2FF74A44DA54EA7
:101B58002243C3F8E0204FF44072D0F8A03023436A
:101B6800A14CC0F8A030A0F574506A6005F50535A1
:101B78000A689E4B42F030020A608A6842F00C0202
:101B88008A60CA6822F00C02CA60CA68CA600A6A17
:101B980022F470620A620A6842F0C0020A608A6827
:101BA80042F018028A60CA6822F01802CA60CA683D
:101BB800CA600A6A22F470420A620A6842F4406201
:101BC8000A608A6842F060028A60CA6822F060028D
:101BD800CA60CA68CA600A6A22F470020A620A689D
:101BE80042F440520A608A6842F0C0028A60CA68B9
:101BF80022F0C002CA60CA68CA600A6A22F070622B
:101C08000A620A6842F440420A608A6842F4C07272
:101C18008A60CA6822F4C072CA60CA68CA600A6A5E
:101C280022F070420A62026842F4407202608268DE
:101C380042F030028260C26822F03002C260C2689C
:101C4800C260026A22F470220262026842F44062B0
:101C58000260826842F060028260C26822F060021C
:101C6800C260C268C260026A22F4700202621A6824
:101C780042F003021A609A6842F003029A60DA6836
:101C880022F00302DA60DA68DA601A6A22F00F02D8
:101C98001A621A6842F00C021A609A6842F0060248
:101CA8009A60DA6822F00602DA60DA68DA601A6A9C
:101CB80022F0F0021A620A6842F440720A608A68E6
:101CC80042F030028A60CA6822F03002CA60CA68EC
:101CD800CA600A6A22F470220A62226822F00302A9
:101CE8002260226842F002022260A26842F00302E7
:101CF800A260E26822F00302E260E268E260226A1F
:101D080022F00F022262226A42F00902226222684D
:101D180022F00C022260226842F008022260A268C7
:101D280042F00C02A260E26822F00C02E260E26873
:101D3800E260226A22F0F0022262226A42F09002F5
:101D480022622B4A176827F030071760176847F098
:101D580020071760976847F030079760D76827F023
:101D68003007D760D768D760176A27F4706717629B
:101D7800176A1762176827F0C0071760176847F0D7
:101D880080071760976847F0C0079760D76827F003
:101D9800C007D760D768D760176A27F470471762FB
:101DA800176A1762176827F440771760176847F4AF
:101DB80000771760976847F440779760D76827F4EB
:101DC8004077D760D768D760176A27F470271762FB
:101DD80010E000BF004402580045025800000258B5
:101DE8000004005800140258000C0258000402585D
:101DF80000100258176A1762176827F440671760BF
:101E0800176847F400671760976847F4406797605A
:101E1800D76827F44067D760D768D760176A27F470
:101E280070071762176A1762176827F44057176018
:101E3800176847F400571760976847F4405797604A
:101E4800D76827F44057D760D768D760176A27F054
:101E580070671762176A17621F6827F0C0071F604C
:101E68001F6847F080071F609F6847F0C0079F60A2
:101E7800DF6827F0C007DF60DF68DF601F6A27F4CC
:101E880070471F621F6A47F410471F62176827F4DC
:101E980040471760176847F400471760976847F48A
:101EA80040479760D76827F44047D760D768D7601E
:101EB800176A27F070471762176A47F020471762BA
:101EC800176827F440371760176847F4003717601A
:101ED800976847F440379760D76827F44037D7604A
:101EE800D768D760576A27F00F075762576A47F0D5
:101EF8000A075762176827F440271760176847F4DE
:101F080000271760976847F440279760D76827F439
:101F18004027D760D768D760576A27F0F00757621D
:101F2800576A47F0A0075762176827F440171760E9
:101F3800176847F400171760976847F440179760C9
:101F4800D76827F44017D760D768D760576A27F44F
:101F580070675762576A47F420675762076827F423
:101F680040070760076847F400070760876847F479
:101F780040078760C76827F44007C760C768C7601D
:101F8800476A27F470474762476A47F41047476231
:101F98002F6827F440072F602F6847F400072F6049
:101FA800AF6847F44007AF60EF6827F44007EF6079
:101FB800EF68EF606F6A27F470476F626F6A47F4E3
:101FC800A0476F622F6827F440272F602F6847F4D7
:101FD80000272F60AF6847F44027AF60EF6827F409
:101FE8004027EF60EF68EF606F6A27F0F0076F62D5
:101FF8006F6A47F050076F62256825F0C0052560B5
:10200800256845F080052560A56845F0C005A560F0
:10201800E56825F0C005E560E568E560256A25F412
:1020280070452562256A45F4A045256200F21A45E7
:10203800046824F030040460046844F02004046058
:10204800846844F030048460C46824F03004C460B8
:10205800C468C460046A24F470640462046A44F4C2
:10206800A0640462046824F440140460046844F41E
:1020780000140460846844F440148460C46824F440
:102088004014C460C468C460446A24F47064446240
:10209800446A44F4C06444621C6824F440741C60BC
:1020A8001C6844F400741C609C6844F440749C6090
:1020B800DC6824F44074DC60DC68DC601C6A24F4AE
:1020C80070241C621C6A44F4C0241C62146824F442
:1020D80040041460146844F400041460946844F4E0
:1020E80040049460D46824F44004D460D468D46074
:1020F800546A24F470445462546A44F4A044546208
:10210800146824F040741460146844F00074146077
:10211800946844F040749460D46824F04074D460A7
:10212800D468D460546A24F470245462546A44F421
:10213800A0245462146824F040641460146844F0C5
:1021480000641460946844F040649460D46824F097
:102158004064D460D468D460546A24F4700454622F
:10216800546A44F4A0045462146824F0405414607F
:10217800146844F000541460946844F04054946027
:10218800D46824F04054D460D468D460546A24F0ED
:1021980070645462546A44F0A06454621A68A74C8C
:1021A80022F440521A601A6842F400521A609A687F
:1021B80042F440529A60DA6822F44052DA60DA68EF
:1021C800DA601A6A22F070621A621A6A42F0806251
:1021D8001A621A6822F440421A601A6842F40042ED
:1021E8001A609A6842F440429A60DA6822F44042DF
:1021F800DA60DA68DA601A6A22F070421A621A6AD9
:1022080042F080421A621A6822F440321A601A6850
:1022180042F400321A609A6842F440329A60DA68EE
:1022280022F44032DA60DA68DA605A6A22F00F0281
:102238005A625A6A42F006025A62326822F04042F2
:102248003260326842F000423260B26842F0404286
:10225800B260F26822F04042F260F268F260726A9C
:1022680022F070427262726A42F0804272624FF4E7
:1022780080760A6822F440320A600A6842F48032A2
:102288000A608A6842F440728A60CA6822F440721E
:10229800CA60CA68CA604A6A22F00F024A620A68BB
:1022A80022F440220A600A6842F480220A608A689E
:1022B80042F4C0628A60CA6822F4C062CA60CA680E
:1022C800CA604A6A22F0F0024A620A6822F440129E
:1022D8000A600A6842F480120A608A6842F440621E
:1022E8008A60CA6822F44062CA60CA68CA604A6AD8
:1022F80022F470624A621A6822F040621A601A6810
:1023080042F080621A609A6842F4C0429A60DA68C1
:1023180022F4C042DA60DA68DA605A6A22F470029B
:102328005A621A6822F040521A601A6842F08052C3
:102338001A609A6842F440429A60DA6822F440428D
:10234800DA60DA68DA605A6A22F070625A621A68E9
:1023580022F040421A601A6842F080421A609A6875
:1023680042F4C0329A60DA6822F4C032DA60DA687D
:10237800DA605A6A22F070425A62314AC2F89040D2
:102388000234C2F894400A3CC2F898404FF4004422
:10239800A2F89C400C6824F440340C600C6844F4A7
:1023A80000340C608C6844F440348C60CC6824F4AD
:1023B8004034CC60CC68CC604C6A24F00F044C628A
:1023C8004C6A44F001044C620C6824F440240C600C
:1023D8000C6844F400240C608C6844F440248C603D
:1023E800CC6824F44024CC60CC68CC604C6A24F0DF
:1023F800F0044C624C6A44F010044C620C6824F4FB
:1024080040140C600C6844F400140C608C6844F4AC
:1024180040148C60CC6824F44014CC60CC68CC6048
:102428004C6A24F470644C624C6A44F480744C62C4
:102438001C6824F040641C601C6803E018040258FF
:10244800B422001044F000641C609C6844F04064AE
:102458009C60DC6824F04064DC60DC68DC605C6AFA
:1024680024F470045C625C6A44F480145C621C6846
:1024780024F040541C601C6844F000541C609C68A4
:1024880044F040549C60DC6824F04054DC60DC6814
:10249800DC605C6A24F070645C625C6A44F080749E
:1024A8005C621C6824F040441C601C6844F00044D2
:1024B8001C609C6844F040449C60DC6824F0404404
:1024C800DC60DC68DC605C6A24F070445C625C6A36
:1024D80044F080545C620C6824F040440C600C6842
:1024E80044F000440C608C6844F040448C60CC6834
:1024F80024F04044CC60CC68CC604C6A24F0704432
:102508004C624C6A44F080544C621C6824F0C0044D
:102518001C601C6844F080041C609C6844F0C00483
:102528009C60DC6824F0C004DC60DC68DC601C6A49
:1025380024F470441C621C6A44F480541C6203F541
:102548000063046824F440540460046844F40054AC
:102558000460846844F440548460C46824F440549B
:10256800C460C468C460046A24F070640462046AC5
:1025780044F000740462046824F44044046004686D
:1025880044F400440460846844F440448460C468AB
:1025980024F44044C460C468C460046A24F07044ED
:1025A8000462046A44F00054046200F583601C6805
:1025B80024F040741C601C6844F000741C609C6823
:1025C80044F040749C60DC6824F04074DC60DC6893
:1025D800DC605C6A24F470245C625C6A44F4003455
:1025E8005C621C6824F040641C601C6844F0006451
:1025F8001C609C6844F040649C60DC6824F0406483
:10260800DC60DC68DC605C6A24F470045C625C6A30
:1026180044F400145C620C6824F003040C600C6839
:1026280044F002040C608C6844F003048C60CC68AD
:1026380024F00304CC60CC68CC600C6A24F00F044E
:102648000C620C6A44F001040C620C6824F00C045F
:102658000C600C6844F008040C608C6844F00C04AE
:102668008C60CC6824F00C04CC60CC68CC600C6A1C
:1026780024F0F0040C620C6A44F010040C6219682F
:10268800556021F440317E4C1960196819609968C9
:1026980041F440719960D96821F44071D960D968D2
:1026A800D960596A21F00F0159621968106021F444
:1026B8004021946094619462C2E90405C2E9080566
:1026C800196019681960996841F4C0619960D968FE
:1026D80021F4C061D960D968D960596A21F0F00144
:1026E8005962196821F440111960196819609968CC
:1026F80041F440619960D96821F44061D960D96892
:10270800D960596A21F47061596296814FF4007654
:102718005C4996834FF4806696850E6826F4404699
:102728000E600E680E608E6846F4C0768E60CE68C5
:1027380026F4C076CE60CE68CE600E6A26F070466B
:102748000E621968504E21F44071196019681960B9
:10275800996841F030019960D96821F03001D96059
:10276800D968D9604949116302315163196A21F462
:10277800702119621146966380269464C2E9100597
:1027880096871022A1F84C201A6822F44062C1E909
:1027980014051A6020251868A1F85C504FF40055FC
:1027A800186098688C65A3F2E63440F06000384AF7
:1027B8009860D86820F06000D860D868D860186A37
:1027C80020F470001862A3F57A7310680B6620F085
:1027D8004060106010684C6640F08060106090683F
:1027E80040F4C0409060D06820F4C040D060D06809
:1027F800D060506A20F47000506226488866A1F8BC
:102808006C5015680B6725F04055C1F8803015608D
:102818001368C1F8844043F08053C1F88800C1E9C7
:102828001D4013604FF4004493684FF48040A1F8B2
:102838008C4043F44043A1F87C009360D36823F4B0
:102848004043D360D368D360536A23F07063536204
:10285800136823F040431360136843F08043136008
:10286800936843F4C0339360D36823F4C033D360D0
:10287800D368D360536A23F070435362F0BC704747
:10288800100C02580018025810180258181802584C
:102898000008025810080258704700BF194B1A4A1E
:1028A800D3F8F01041F00101C3F8F010D2F8B010DD
:1028B80041F00101C2F8B010D3F8981041F00101BD
:1028C800C3F89810D3F8981021F00101C3F89810B4
:1028D800D3F8E81041F00F01C3F8E810D2F8A810B7
:1028E80041F00F01C2F8A810D3F8902042F00F026F
:1028F800C3F89020D3F8902022F00F02C3F890205C
:10290800704700BF0044025800450258194BB3FBFA
:10291800F1F1C31E022B10B428D8174B03EB80200B
:10292800242400230460012443608360C46046F6C5
:1029380078048461C461112404620C0C84628CB232
:10294800C1F34E01C46201EB5204A1EB520107220C
:1029580044638163C36303640366836642610368F7
:102968005DF8044B43F00103036070474FF080406B
:10297800D6E700BF00E1F50500F8FF3FF0B54008D5
:102988002C4C05252026B1F5007FB4FBF0FC2A4825
:102998004FF000040CF1FF3E05604FEA1C4546600D
:1029A80046F6680C4FF0010684601FFA8EF7C66081
:1029B800046127FA06F64461C0F818C04FF0680CA5
:1029C800C0F81CC040F2555C4465C0F820C04462A1
:1029D80085621A4DC762A5F800E046638663C66340
:1029E80004648465C46517D9C1F30411E03141F466
:1029F8000841114800241B0189B2DBB24164846498
:102A08000F490466446684660E48026081F81933EB
:102A18004FF000730B60F0BDB1F5807F03D9C1F3AF
:102A2800C401C031E3E78029E1D9C1F34501803110
:102A3800DDE700BF00E1F505000001405423001068
:102A480000E100E03000001008B5034B1B68984710
:102A5800024B00221A6108BD30000010000001403E
:102A68007F49013810B40C6D24F440540C650C6D8A
:102A780044F480540C65052800F2F080DFE800F08B
:102A880046629AB6D2037649764CD1F89C0040F05B
:102A98002000C1F89C00D1F89C0020F02000C1F86B
:102AA8009C00D1F8F40040F02000C1F8F400A1F532
:102AB8000C31D4F8B40040F02000C4F8B4004FF44E
:102AC800885400200C60684C48608C60674CCC606F
:102AD800674C08610864CC64664C0C6501F13004ED
:102AE800146001F1140401F118021C604FF4007322
:102AF800019C22608B610B6843F001030B600B683B
:102B080043F400730B605DF8044B70475449554C0F
:102B1800D1F8980040F48050C1F89800D1F8980096
:102B280020F48050C1F89800D1F8F00040F48050AB
:102B3800C1F8F000D4F8B0004F4940F48050C4F810
:102B4800B000BCE746494748D1F8904044F4804477
:102B5800C1F89040D1F8904024F48044C1F89040E6
:102B6800D1F8E84044F48044C1F8E840D0F8A840DF
:102B780044F48044C0F8A840D1F89C4024F00204F2
:102B8800C1F89C40D1F8F44044F00204C1F8F44084
:102B9800D0F8B44044F00204C0F8B440D1F81C01A5
:102BA800364C20F00200C1F81C014FF40070344983
:102BB800606084E72A492B4CD1F8900040F400402B
:102BC800C1F89000D1F8900020F40040C1F89000BE
:102BD800D1F8E80040F40040C1F8E800D4F8A800B3
:102BE800284940F40040C4F8A80068E71C491D4C77
:102BF800D1F8980040F40050C1F89800D1F8980036
:102C080020F40050C1F89800D1F8F00040F40050CA
:102C1800C1F8F000D4F8B0001B4940F40050C4F8E3
:102C2800B0004CE70E490F4CD1F8980040F48010E2
:102C3800C1F89800D1F8980020F48010C1F89800E5
:102C4800D1F8F00040F48010C1F8F000D4F8B000DA
:102C58000E4940F48010C4F8B00030E7FF2052E776
:102C680000440258004502580F08075070004405F8
:102C7800EFBEADDE06000702003001400004005838
:102C880000380040003C0040003401400050014042
:102C9800704700BF464B474AD3F8E81041F030016F
:102CA800C3F8E810D2F8A81041F03001C2F8A81013
:102CB800596D21F0E0415965596D41F080515965D0
:102CC800D3F8901041F40071C3F89010D3F8901025
:102CD80021F40071C3F89010D3F8E81041F40071A2
:102CE800C3F8E810D2F8A81041F40071C2F8A8108F
:102CF800D3F8101121F40071C3F81011996D21F463
:102D0800E0519965996D41F480619965D3F89C10FB
:102D180041F40071C3F89C10D3F89C1021F40071A1
:102D2800C3F89C10D3F8A81021F40071C3F8A810B8
:102D3800D3F8F41041F40071C3F8F410D2F8B410C9
:102D480041F40071C2F8B410D3F81C1121F40071D9
:102D5800C3F81C11996D21F460419965996D41F48E
:102D680000519965D3F89C1041F4E051C3F89C10C8
:102D7800D3F89C1021F4E051C3F89C10D3F8A810A4
:102D880021F4E051C3F8A810D3F8F41041F4E0514D
:102D9800C3F8F410D2F8B41041F4E051C2F8B410FA
:102DA800D3F81C2122F4E052C3F81C21704700BF5D
:102DB80000440258004502582DE9F8432E4C884635
:102DC80016461F46A0FB040129A3D3E90023FDF7FB
:102DD80085FEC10BB1EB104F46D94FEA104C0346A4
:102DE8004FF000094FF6FF7E62460CF1010CB0FB74
:102DF800FCF5754528BF754605FB0CF4241A9C4262
:102E080002D2914623460CB18C45EDD11B490B7873
:102E1800012B26D84FEAC7070CBF194A194A0023C5
:102E280047F005070120184C360117600F78F6B2F5
:102E38005360D06007F13603C2F82890D562134A70
:102E480042F82780E21882F800635A0903F01F034A
:102E580000FA03F344F822300878431C0B70BDE8ED
:102E6800F883FF20BDE8F8830025A946CEE700BF18
:102E780000CA9A3B0000000000C2EB0B562300106A
:102E8800001400400010004000E100E0380000108D
:102E980030B41D4D297804292AD84B1E032B25D878
:102EA8001A4C04EB81241A4AB0F5202FA2FB0032F9
:102EB8004FEAD20224D3002352100133B2F5803FE7
:102EC800DBB2F9DA072B17D85B0243F48003E3601F
:102ED8000023084663620123236142FA03F3013A9F
:102EE80063614B1CA2612B7030BC7047094CDAE758
:102EF800FF2130BC08467047FE2130BC08467047A9
:102F08004FF48003E3E700BF572300100020005868
:102F1800CDCCCCCC0024004010B4104B04240022AB
:102F280046F678001C6001245A606FF000419A60F0
:102F3800DC604FF0FF349861D8611A629A62DC62F3
:102F480059639963DA631A641A669A665A611A6849
:102F58005DF8044B42F001021A607047000C004013
:102F680008B5034B1B689847024B00221A6108BD3D
:102F7800380000100010004008B5034B5B68984704
:102F8800024B00221A6108BD3800001000140040EE
:102F9800704700BF10B4174B00224FF0FF346FF09A
:102FA80001001549D8606FF00300996058626FF00E
:102FB80005005961D8636FF007001A611962D96278
:102FC8009A62996359641A641965D965C3E900421C
:102FD8006FF00204C3E906426FF00404C3E90C422F
:102FE8006FF00604C3E91502C3E912425DF8044B09
:102FF800704700BF5C230010992F100810B40C4CC8
:103008002378072B0FD80B4A03EB430C42F82C000C
:1030180002EB8C020020C2E901015A1C18462270FA
:103028005DF8044B7047FF235DF8044B1846704762
:10303800582300105C23001070B50A4C002604F1D8
:10304800600554E903230133934244F8083C04D350
:1030580054F8043C44F8086C98470C34AC42F0D15E
:1030680070BD00BF682300103A4A3B483B4B00F54F
:103078009F6C3B492DE9F04F3A4C02F1C40BDFF845
:1030880024A100F5F07902F1400802F5A27ECAF801
:1030980000B00025DFF810A102F19807257102F5AC
:1030A800DE76086081B03049C3E9000401230234A8
:1030B8000A6002F216318AF80030DFF8F0A0CAF888
:1030C8000090DFF8EC90C9F80080DFF8E880C8F8D5
:1030D80000E0DFF8E4E0CEF800C0DFF8E0C0CCF8AC
:1030E8000040224C2760224C2660224C216000F5CB
:1030F800B66421490B7021490C6002F1B4042049DF
:1031080002F526720C601F491F4C0A601F4A2049AD
:10311800137005231F4AC0F8B4350623C0F8B0253C
:10312800C0F8BC35C0F8B81500F076FC294640F266
:10313800E170FEF76FF9184B1870FEF72DFA2B4661
:1031480020700B221549164801B0BDE8F04FFFF773
:1031580033BE00BFBC230010141A0010F026001064
:1031680008000010342200100C0000107829041008
:1031780098280410A02804109C2804108C280410F7
:103188009428041084280410B5000010882804101E
:1031980000C2EB0B30091200B4000010013810080F
:1031A80015160500000000100C19001094350410C5
:1031B800983504109035041074290410C42804109C
:1031C800012930B432D9022915D1002B68D1002A3F
:1031D80000F0C980784900F00202784B09681B6842
:1031E800884280F0CD80184420F00300029B30BC58
:1031F800135200207047002B46D0030E002A00F01F
:103208008180042B6E4C6C4928BF04236B4A0968E3
:1032180054F83330126813FA80F08842C0F0C18045
:103228006848029B0360002030BC7047E3B1030E7E
:10323800002A7DD0042B00F0030480B228BF0423A9
:10324800002900F09F805E495B4A51F833101268EC
:1032580008445A4D90422B6880F0AB80034423F019
:103268000303029AE254DEE7002A2FD000F003029B
:1032780000297DD05049514B09681B6888427DD28E
:10328800184420F0030069E0002ACAD04A4A4B4B90
:1032980012681B689042C3D2184420F00300C0E7AC
:1032A800030EC2B1042B4649434C28BF0423434AAA
:1032B800246851F8333000F00201126813FA80F0E4
:1032C800A04272D33F48029B0B52ACE700F00303C5
:1032D800029A1A54A7E7042BC0F301423A4C28BFBC
:1032E80004233A4902EB8303096800F0020254F808
:1032F800233013FA80F0884242D2354B184420F02C
:10330800030073E7042BC0F301422F4928BF0423AD
:103318002E4C02EB8303226851F8233013FA80F015
:103328009042BFF47DAF2A4B184420F0030078E7A1
:10333800042BC0F30142244C28BF0423234902EB89
:103348008303096800F0030254F8233013FA80F06D
:10335800884213D21E4B184420F00300029B1354DA
:10336800002030BC704700F00203029A1A525AE754
:103378001149124B49685B68884281D31148EDE7CF
:10338800104833E70E4A0C4902EBC3030B4D49685A
:103398005B686A68184488420BD2131823F0030349
:1033A8005FE7104420F003003BE7104420F00300DF
:1033B80089E7044B55E700BF4C000010F0260010C9
:1033C8005400001040000010740000104800001065
:1033D800BC230010CBB1030E10B41AB3042B80B277
:1033E80028BF0423002935D02A492B4A51F8331025
:1033F80012680844294C9042236845D2034423F0BC
:10340800030318685DF8044B70474AB107293DD09B
:10341800214A224B69BB52685B6890422DD32048F1
:1034280000687047042BC0F301421E4928BF0423DB
:103438001D4C02EB8303226851F8233013FA80F005
:1034480090421FD2194B184420F0030000685DF821
:10345800044B70470F4A104902EBC3030F4C4968ED
:103468005B686268184488420ED2131823F003037D
:10347800C7E712681B689042D1D2184420F00300B5
:10348800006870470648E1E7054BBAE700F003001B
:1034980000687047540000104C000010F02600101F
:1034A800400000107400001048000010BC230010F9
:1034B800C3B14FEA106C12B3BCF1040F80B228BF3D
:1034C8004FF0040C002936D1204B214A03EBCC0CD9
:1034D80020495368DCF804204968104488420AD31C
:1034E8001D487047002AFCD01A4A194BF1B11268DE
:1034F8001B689042F4D2184420F003007047BCF1D6
:10350800040FC0F30143154928BF4FF0040C144AB7
:1035180003EB8C0C126851F82C3013FA80F39342A9
:10352800DED21048184420F00300704752685B68E8
:103538009042D5D2DFE70549064A51F83C10126897
:103548000844034B90421B68CAD2D4E754000010C9
:10355800F02600104C00001040000010740000100D
:1035680048000010BC23001030B5944C83B020787C
:10357800FDF7FCFF002840F0C180914C2378002B18
:1035880044D0012B00F083809FED8E7AB2EE045A6E
:103598008D4B0025B0EE476ADFED8C7A93ED6F4ACC
:1035A800D3ED8B6AA4EE276ADFED895AF0EE477AED
:1035B800D3ED834AA6EEA57AD3ED706A854A66EE06
:1035C800856A0095E4EEA57ABCEEC66AFCEEE66A6A
:1035D800BCEEC77A16EE103A16EE901A1B04FCEEF3
:1035E800E77A13FA81F3536017EE903A99B217EE1F
:1035F800103A01EB0343784913600823087840F236
:10360800F271FDF7D5FF257003B030BD9FED6D7ADF
:10361800F3EE095A00936C4BF0EE476A6D4AD3ED0E
:10362800787AD3ED7A4AE7EEA56A93ED795AF0EE07
:10363800477A93ED2B6AA5EE257A674BE4EEA57AD7
:10364800DFED635A187826EE256AFCEEE66ABCEED2
:10365800C77ABCEEC66A16EE901AFCEEE77A16EE4A
:10366800103A89B201EB034317EE101A536017EEB4
:10367800903A9BB203EB0141082311604FF4FE61BD
:10368800FDF796FF23780133237003B030BD9FED1B
:103698004D7A4D4AF0EE477A9FED4D6AD2ED286A91
:1036A80092ED265AE6EE867AD2ED275AF0EE476A70
:1036B8004A4BA5EE867A474A4748E5EE066A0078FF
:1036C800FCEEE77ABCEEC77AFCEEE66A16EE901AD4
:1036D800194317EE903A516099B217EE103A01EB80
:1036E8000341082311600021009140F2F171FDF7B8
:1036F8005FFF23780133237003B030BD384D207845
:1037080005F108036A1C291D0095FDF7BDFE6B78BD
:10371800082B7FF432AFAA684FF6FF7193B28B4241
:103728000DD007EE903A2F4B9FED2F7AF8EE677A7F
:103738001B6803F5A26367EE877AC3ED007A4FF63C
:10374800FF71130CB1EB124F0DD007EE903A254BD9
:103758009FED267AF8EE677A1B6803F2045367EE4A
:10376800877AC3ED007AEA684FF6FF7193B28B420D
:103778000DD007EE903A1B4B9FED1D7AF8EE677A55
:103788001B6803F2FC4367EE877AC3ED007A4FF6B5
:10379800FF71130CB1EB124F3FF4EFAE07EE903A06
:1037A800104B9FED147AF8EE677A1B6803F20C53FE
:1037B80067EE877AC3ED007ADFE600BFB400001039
:1037C800D826001000FEFF46BC23001000401C460F
:1037D80000004842FC260010B50000100000FFFF62
:1037E800DC260010F0260010CDCCCC3D0AD7233CB7
:1037F8006F12833A17B7D13838B51D4C01201D4DCB
:1038080022782B681C4983F84C201A6D20700244DA
:103818001A654A6A5A6500F043FE184B5A681279CD
:1038280042B1174A19681368D1F8BC1501338B42A5
:10383800136017DA2B68104A586D526A196E121AFB
:1038480093F84C008A42596E38BF1A668A42996DBD
:1038580088BF5A661144996510B1D96D0A44DA6572
:10386800207038BD00231360FFF77EFEE2E700BF3B
:103878009028041084280410000C0040F026001042
:10388800EC260010074B5A68127832B193F875008D
:1038980083F8752080F001007047104683F8752082
:1038A800704700BF0C280410064B5A68127822B9DA
:1038B80093F8750083F875207047002083F8752009
:1038C800704700BF0C280410094B59681A7B097807
:1038D8009142ACBF0122002206DB93F8750083F801
:1038E800752080F001007047002083F8752070472C
:1038F8000C280410064B59681A7B09789142ADBF11
:103908000122002293F87500002083F87520704783
:103918000C2804100A4B59689A89B1F90010914291
:10392800ACBF0122002206DB93F8750083F87520EE
:1039380080F001007047002083F87520704700BFB1
:103948000C280410074B59689A89B1F90010914264
:10395800ADBF0122002293F87500002083F875207E
:10396800704700BF0C280410094B5968DA680968C9
:103978009142ACBF0122002206DB93F8750083F860
:10398800752080F001007047002083F8752070478B
:103998000C280410064B5968DA6809689142ADBFD3
:1039A8000122002293F87500002083F875207047E3
:1039B8000C2804100C4B5A68D3ED037A92ED007A68
:1039C800B4EEE77AF1EE10FAACBF0122002206DB72
:1039D80093F8750083F8752080F001007047002087
:1039E80083F87520704700BF0C280410094B5A68EB
:1039F800D3ED037A92ED007AB4EEE77AF1EE10FA9D
:103A0800ADBF0122002293F87500002083F87520CD
:103A1800704700BF0C28041070B50024224B234EB9
:103A28004FF4E060224D21465C70FDF7F3FC3070E6
:103A3800FDF7B2FD2146287040F20170FDF7EAFC5F
:103A48007070FDF7A9FD0346214640F202706B70C5
:103A5800FDF7E0FCF070FDF79FFD164B4FF6FF7287
:103A680015499A839A849A859A869A879A809A8120
:103A78009A82A3F84420A3F84C20A3F85420A3F872
:103A88005C20A3F86420A3F86C20A3F874200B4BE7
:103A9800E870C3E90711C3E90911C3E90B11C3E9C8
:103AA8000D11C3E90F1170BDA027041004270010E1
:103AB8000827001010270010B80000100C28041068
:103AC8002DE9F043614C83B06078FDF74FFD002885
:103AD80040F0A4825E4B5F4900229E8808785E4CC5
:103AE80001305E4D227000F001002A80087001301C
:103AF800D988013189B28E42D980C0F0BA82114684
:103B08009446B3F80EE09E890EF1010E1FFA8EFE60
:103B18007645A3F80EE080F0A78091000226B3F85E
:103B280016E002EB400806FA01F14D4F0EF1010EC6
:103B38008C4499681FFA8EFED1F80090511C1FFA28
:103B48008CFCA3F816E047F82890CAB2B3F8149092
:103B580001212270F14500FA01F8D98180F03D82F7
:103B68008A4200F02A82DA8B9F8B013292B2974206
:103B7800DA8380F09C82DA8C998C013292B291427D
:103B8800DA8480F08B820121DA8D9E8D013292B227
:103B98009642DA8580F08582DA8E9E8E013292B264
:103BA8009642DA8680F07482DA8F9E8F013292B262
:103BB8009642DA8780F06A82B3F846200132A3F889
:103BC8004620B3F84E20B3F84C60013292B29642C8
:103BD800A3F84E2080F06982B3F856200132A3F88A
:103BE8005620B3F85E20B3F85C60013292B2964278
:103BF800A3F85E2080F05782B3F866200132A3F85C
:103C08006620B3F86E20B3F86C60013292B2964227
:103C1800A3F86E2080F0A881B3F876200132A3F8CB
:103C28007620002940F045828C465FFA8CF10D4CD5
:103C380000230B4A01F5007102EBC002205C0093DF
:103C48000823FDF7B5FC03B0BDE8F0830427001096
:103C5800102700100D270010A8270410AA27041009
:103C6800AC27041008270010B3F816E09E8A0EF15E
:103C7800010E1FFA8EFE7645A3F816E0C0F09A8171
:103C8800B3F81EE09E8B0EF1010E1FFA8EFE7645EC
:103C9800A3F81EE0C0F0FE81B3F826E09E8C0EF17A
:103CA800010E1FFA8EFE7645A3F826E015D2022AE9
:103CB8003FF46AAF9600052102EB4007B1401E6A47
:103CC8008C440121D6F800E056181FFA8CFCD984E0
:103CD800F2B2CF4E227046F827E0B3F82EE09E8D60
:103CE8000EF1010E1FFA8EFE7645A3F82EE015D2CE
:103CF800022A3FF451AF9600062102EB4007B1407B
:103D08009E6A8C440121D6F800E056181FFA8CFCF4
:103D1800D985F2B2BE4E227046F827E0B3F836E0F5
:103D28009E8E0EF1010E1FFA8EFE7645A3F836E040
:103D380015D2022A3FF438AF9600072102EB40075C
:103D4800B1401E6B8C440121D6F800E056181FFACA
:103D58008CFCD986F2B2AE4E227046F827E0B3F852
:103D68003EE09E8F0EF1010E1FFA8EFE7645A3F8F7
:103D78003EE015D2022A3FF41FAF9600082102EB5D
:103D88004007B1409E6B8C440121D6F800E05618DC
:103D98001FFA8CFCD987F2B29D4E227046F827E0B4
:103DA800B3F846E0B3F844600EF1010E1FFA8EFE38
:103DB8007645A3F846E016D2022A3FF402AF9600F1
:103DC800092102EB4007B1401E6C8C440121D6F852
:103DD80000E056181FFA8CFCA3F84610F2B28C4E7D
:103DE800227046F827E0B3F84EE0B3F84C600EF1C5
:103DF800010E1FFA8EFE7645A3F84EE016D2022A6F
:103E08003FF4EAAE96000A2102EB4007B1409E6CEF
:103E18008C440121D6F800E056181FFA8CFCA3F850
:103E28004E10F2B27A4E227046F827E0B3F856E008
:103E3800B3F854600EF1010E1FFA8EFE7645A3F812
:103E480056E016D2022A3FF4CCAE96000B2102EBC4
:103E58004007B1401E6D8C440121D6F800E0561889
:103E68001FFA8CFCA3F85610F2B2694E227046F87D
:103E780027E0B3F85EE0B3F85C600EF1010E1FFABC
:103E88008EFE7645A3F85EE016D2022A3FF4B4AE61
:103E980096000C2102EB4007B1409E6D8C44012135
:103EA800D6F800E056181FFA8CFCA3F85E10F2B2A0
:103EB800574E227046F827E0B3F866E0B3F864601E
:103EC8000EF1010E1FFA8EFE7645A3F866E016D2B3
:103ED800022A3FF496AE96000D2102EB4007B1404E
:103EE8001E6E8C440121D6F800E056181FFA8CFC8F
:103EF800A3F86610F2B2464E227046F827E0B3F8EF
:103F08006EE0B3F86C600EF1010E1FFA8EFE764576
:103F1800A3F86EE029D2022A3FF47EAE97000E2164
:103F2800B3F8766002EB400EB940394F01368C4445
:103F3800996EB6B2D1F80080511C1FFA8CFCA3F818
:103F4800766047F82E80CAB2B3F8747001212270E7
:103F5800B742A3F86E1014D3A5F800C0002A7FF466
:103F680064AE03B0BDE8F0830222B3F876E0B3F89C
:103F780074600EF1010E1FFA8EFE7645A3F876E006
:103F880048D2022A3FF44DAE96000F21571CB1408B
:103F98008C44196F0E6802EB4001FAB21FFA8CFCD0
:103FA80022700124A5F800C0A3F87640184B43F806
:103FB8002160D3E7164F4FEA400896000321B1402D
:103FC8008C4419690E68511C42441FFA8CFC47F84E
:103FD8002260CAB201212270D982D98B9E8B01310D
:103FE80089B28E42D9834FD2022A3FF4C4AD9600DB
:103FF800042190440132B140D2B28C4499690968D5
:104008001FFA8CFC227047F828100121D98343E657
:10401800AC27041000299FD18C469FE7274D607874
:1040280005F1100105F1180305F11102009105F1E0
:104038001401FDF729FA6B7C082B7FF44BAD2C7E1D
:10404800013CE4B20E2C8CD8697EE869CB09C1F337
:1040580080122C7601F03F01FFF72AFA184B2A7ECE
:10406800698B03EBC20243F8340091800021D180B0
:1040780031E519680122134F09689446DA8047F838
:104088003010114622703CE5012105E6022287E640
:10409800022264E60B4F4FEA4008A8E702220121FA
:1040A8001BE602223AE6022206E70222BEE6324672
:1040B800F2E50222A5F800C050E700BFCC270410A3
:1040C80010270010AC270410F0B5A94C83B0E07895
:1040D800FDF74CFA002848D1A64C94F8733094F8B0
:1040E800706093B1A44DA54A2B68023393420BD953
:1040F80000232B6084F87430A4F8723016B994F851
:1041080071303BB903B0F0BD2B6036BB94F8713009
:104118001BB3994D00222178134684F87120C4E915
:1041280016120026964F974801F540710096226DA9
:1041380084F874601344944AC0789BB218325C1CAB
:1041480057F823301360A3B257F82330536008237D
:10415800FDF72EFA2E6003B0F0BD94F87430002BF2
:10416800D0D0854DD4E91613DBE7884F0546E078B3
:1041780007F1300207F1380307F13401009207F123
:104188003102FDF781F997F83130082BA4D197F85F
:104198003930784C052B04D8DFE803F083709E484B
:1041A8002B1494F8706094F8733026B984F8716011
:1041B80097E794F8733094F87160002EF6D166652D
:1041C8002E46F3E794F87330002B00F0128197F92C
:1041D8003B20002AC0F21381012297F83A1094F884
:1041E800706084F87420FA6BA165E265002EDDD05A
:1041F800E1E797F8382023789A42D2D194F8706092
:10420800002ED6D197F83A2094F844309A4200F01C
:104218000781A36E43F010031F2BA36600F0C7802D
:10422800002294F8733084F87020BFE797F838209C
:1042380023789A42B5D194F87060002EB9D197F8D6
:104248003A204FF4803322750AB1B3FBF2F3F96BCD
:10425800A3648B4228BF0B462366A361A36E43F079
:1042680008031F2BA366DBD194F844309342D7D1BF
:10427800012294F8733084F870209CE797F838206E
:1042880023789A428DD194F87060002E91D163788A
:1042980097F83A10032B00F2D980DFE803F079A1F0
:1042A800988F94F87230002B7FF47BAF94F87330BA
:1042B800002B40F09E8097F8382097F83A1084F841
:1042C8007030A36684F844302270032900F2C78056
:1042D800DFE801F0493C2F1B97F8382023789A42F1
:1042E8007FF45FAF94F87060002E7FF462AFA36E26
:1042F800FA6B43F0040322611F2BA36600F0898048
:1043080094F8733084F8706050E700230321F86B49
:104318001A466170FFF7CCF86060A26E94F870607E
:1043280042F0010294F87330A266002E3FF43EAFCB
:1043380041E700230221F86B1A466170FFF7B8F8CD
:10434800FB6B03F0020318446060E6E700230121D9
:104358001A466170F86BFFF7ABF8FB6B03F00303C9
:1043680018446060D9E700231A4619466370F1E7DC
:10437800042700100C28041088270410DF93040079
:104388008827001008270010AC270410CC27041039
:10439800FB6B394AE360394B012908BF1346E366D2
:1043A800A36E43F002031F2BA3667FF439AF94F882
:1043B8004420237D9A427FF433AF59E7FB6B304AA0
:1043C800E360304B012908BF1346E366E8E7FB6B5F
:1043D8002D4AE3602D4B012908BF1346E366DFE74A
:1043E800FB6B2B4AE3602B4B012908BF1346E3669E
:1043F800D6E794F87060002E3FF4D8AEDBE60022D2
:1044080094F870601346A4F87220002E3FF4CEAEE4
:10441800D1E694F84420237D9A427FF471AF27E7D0
:1044280097F83B10F86BCB09C1F3801201F03F01FC
:10443800FFF73EF894F8443004EB8302082BD06170
:104448003FF6E7AE013384F84430E2E6FB6B124AEC
:10445800E360124B012908BF1346E366A0E7042373
:10446800C1F38012F86B6370CB0901F03F01FFF7CD
:104478001FF8606051E700BFB13810088D38100888
:104488009D391008713910084D3910081D39100868
:10449800FD381008D1381008F5391008BD39100852
:1044A80070B53A4D82B02878FDF760F848B9FFF743
:1044B80007FBFFF709FE364B1A78002A34D102B001
:1044C80070BD344C287804F10803621C211D009447
:1044D800FCF7DAFF6378082BE9D1637A012B4BD01C
:1044E8002D4D237A2A789A4229D02C4AD4E90210F1
:1044F800914238D00026A17A6E70C1F38012284DFF
:104508002B7063896E706B80CB0901F03F01FEF759
:1045180061FF024623480823009631466A602A460E
:104528000078FDF745F8C2E700221A7001F000F99B
:104538000028C4D002B0BDE87040FDF705BA6A781B
:10454800012AD2D1A27AA9789142CED16A68CB0940
:10455800E0680092C1F3801201F03F01FEF730FEDF
:10456800237AE068C6E7104A9042C3D101F0E0F828
:1045780040B9237AE068BDE7074BD4E90221C3E9D3
:10458800002194E7FDF7E0F9F3E700BF04270010E6
:104598000C270010CC270410A0270410AA5581C6A8
:1045A800AC27041008270010E2C35BA4704700BFC3
:1045B800424A434B12684349D2ED007A1B68B8EE71
:1045C800E76A07EE900A92ED027AF8EE677A0968D0
:1045D800B8EEC77ADFED3C5ADFED3C3A87EE865AF3
:1045E80030B454686FF000420860196D9A61DA635C
:1045F8001A669A6D186904FB0122DD6A9966996842
:1046080007EE902A00225D6401FB0400B8EEE76A19
:10461800196206EE900A596BC6EE077ADA6105FB55
:1046280004119A601A611A6425EE256ADA62B8EEF6
:10463800E65AD3ED056A5A63F8EEE64A06EE901A92
:1046480083ED006A85EE076A5A661A65B8EEE65A7F
:10465800D3ED0E6AC4EE872AC5EE074AB8EEE64ADD
:1046680066EE256A67EEA57A84EE073AC3ED096A15
:1046780076EEA36AB0EE636A24EEA55AA2EEA56AA6
:1046880083ED125A76EE856A93ED175AC3ED1B7ABD
:10469800B8EEC55A9A6577EEA67AA3EE256AC5EEF6
:1046A800076AC3ED1C7AB0EE467A30BCA6EEA57A4E
:1046B80077EEC77AC3ED1D7A704700BF8C280410C7
:1046C80084280410942804100000C8420000000048
:1046D80038B53C4C092100203B4D04F15402FCF74D
:1046E800B1FC04F1600205210120FCF7ABFC224675
:1046F80007210120FCF7A6FC04F10C02032100208D
:10470800FCF7A0FC04F1180213210020FCF79AFC26
:1047180004F124020F210020FCF794FC04F130027C
:104728000E210120FCF78EFC04F13C02042100203C
:10473800FCF788FC04F1480208210120FCF782FC00
:1047480029460020214CFCF719FD05F11401012030
:10475800FCF714FD05F1280102201D4DFCF70EFDA4
:104768001C481D4A06231D49046042F2107011605E
:104778004FF496711A4AFEF701F91A4B1A4A1B8828
:10478800126807EE903A19485B08D2F88C2018494D
:10479800FBEEEF7A2B800368164CC3F89C20C3F815
:1047A800A020C3F8A420C3F8A8208B68124A43F0BD
:1047B8000403C4ED007A8B60936843F004039360AC
:1047C80038BD00BFCC28041038290410BC74133D30
:1047D800BC000010C0000010C800001017B7D13886
:1047E800AD5110085423001074290410982804109F
:1047F80000200240C400001000210240F0B4574CD1
:10480800574BA6691D683278676912F0010200F0FB
:104818009C800022134638880132317813FA80F3DD
:10482800C807F8D407EE902AF8EEE76A216AA76A63
:104838000968E66A01FB12334FF4046207EE903A06
:10484800E3691A80F8EEE77A636A93ED007A67EE17
:10485800877A87EEA67A85ED017A327812F001021E
:1048680077D00022134638880132317813FA80F362
:10487800C907F8D407EE902AF8EEE75A616BA06BE7
:104888000968D0ED006A01FB1233226B4FF4046112
:1048980007EE903A334B1180F8EEE77A1B6867EE23
:1048A800A67AD3ED086A87EEA56A76EE075A85EDF3
:1048B800026AF1EE657AF4EEE67AC5ED007AF1EE79
:1048C80010FA25DCF4EEE65AF1EE10FACCBF01231B
:1048D8000023F4EEC76AF1EE10FA06D4F1EE667A18
:1048E800F4EEC77AF1EE10FA20DD1F4B1B681A7838
:1048F80082B11E4A126812783AB1597829B91C4C0B
:10490800606C40F40040606419705A70F0BC7047E5
:104918000123DEE716490124164D00204A6C22F4D3
:1049280000424A642A681C705060E2E7F4EEC66AE6
:10493800F1EE10FAD9D4F4EEC67AF1EE10FAD4DC1E
:10494800002BD2D1084B1B68D3E7DFED0B6A134667
:104958006CE7DFED095A134690E700BF38290410C9
:104968007829041074290410A0280410C4280410FD
:10497800000001409828041000000000B44AB7EE77
:10498800005AB44BB4481B68006893ED277A93ED3E
:10499800286A30B4D2E9151424680968091B946E92
:1049A80006EE901AD16DF8EEE66AD1ED007AD2E9FA
:1049B800185166EEA76A2A680968F0EEE67AC0ED33
:1049C800036A521AB4EEE77AF1EE10FA48BFC3ED63
:1049D800277A07EE902A94ED007AF8EEE77A67EEE8
:1049E800877AB0EEE77AC0ED047AB4EEC76A93ED41
:1049F800296AF1EE10FA48BF83ED287A86EE867AA6
:104A0800B4EEC57AF1EE10FA40F3FE8040F2691078
:104A18009FED925A4FF4B47193ED2A7AF7EE005A4B
:104A28008F4A87EE876A02EB810102EB800291EDE3
:104A3800007AD2ED007A77EEC77AA7EE857A83ED11
:104A4800247AB4EEE56AF1EE10FA40F3C68040F23B
:104A58006910DFED825A4FF4B471824ADFED824A61
:104A680002EB810102EB8002D1ED007A92ED005A4F
:104A780035EE675AE5EE257AB0EE676A77EEA77AE3
:104A880083ED256AF4EEE47AF1EE10FA40F18580C0
:104A9800764AB0EE006ADFED767A126837EEC77AAA
:104AA800D2ED267AE7EE067A9FED727AF4EEC77AAF
:104AB800F1EE10FA69DB77EEC77A92ED297AB7EE54
:104AC800006AD3ED2C5A6C49E5EE876AC3ED267A65
:104AD80037EE067A0968887886EE876A83ED2C6A4D
:104AE80080B3BEEE007AB4EEC76AF1EE10FAACBF3E
:104AF80001200020D3F8D440D2F8B0500134AC42A1
:104B0800C3F8D44026DA0024D2ED256A9FED597AFD
:104B180077EEA67A8870CC70F4EEC77AF1EE10FAC8
:104B2800A8BF77EEC77AF5EEC07AC3ED027AF1EE48
:104B380010FA05D59FED4F7A77EE877AC3ED027AA2
:104B480030BC7047B6EE007AB4EEC76AF1EE10FAE0
:104B5800D0DB01200024C3F8D440484C2468647892
:104B68005CB392ED246A0025D3ED276A93ED287A89
:104B780066EE866AC3F89C5027EE067AC3F8A05002
:104B8800C3ED296A83ED2A7ABEE7F5EEC07AF1EE25
:104B980010FA48BF77EE877A8FE7DFED395AF4EEDF
:104BA800E57AF1EE10FA0ADB304AB0EE006A1268D4
:104BB800D2ED267AE7EE067A76E70124A4E7B5EE89
:104BC800C07AF1EE10FA36DB9FED297A274A77EEA4
:104BD800467A126877EEA77A66E7FFEE007AB4EEB7
:104BE800E76AF1EE10FA2ED476EE255A9FED206A88
:104BF80065EE865AFDEEE57AB8EEE76A17EE901A8A
:104C0800481C75EEC65A28E7BFEE006AB4EEC67AAD
:104C1800F1EE10FA12D437EE055A9FED157A25EE0B
:104C2800075ABDEEC57A17EE101AB8EEC77A481CB7
:104C380035EE475AF0E60D4A126835E701209FED38
:104C4800075A0021E8E60120DFED045A002104E7B5
:104C5800CC280410982804107829041000000000BB
:104C6800D0080010081000100000B4427429041085
:104C7800000034430000B443A0280410C4280410E2
:104C880000008743334A34491268D1ED007A92ED27
:104C9800027A324B27EE277ADFED316A9FED314AEF
:104CA800BDEEC76A77EE265A16EE101AB8EEC66A37
:104CB800BDEEE55AC1F3080175EEA66A37EE466AFD
:104CC80003EB8100F8EEC54A15EE101ABDEEE65A60
:104CD80090ED007AD0ED017AC1F3080175EEE45A3F
:104CE80077EEC77A03EB810015EE101AA6EE277A45
:104CF800C1F30801F8EEC57A76EEE76A82ED037A29
:104D0800D0ED007A90ED016A03EB810036EE676A18
:104D1800E5EE867AC2ED047A77EEC75A90ED006A1E
:104D280037EE677A90ED015A65EE845A35EE465AA9
:104D380027EE047AC2ED075AA6EE856A82ED087A54
:104D480076EE677A82ED056A67EE847AC2ED067AB6
:104D5800704700BF98280410B0150010CC00001050
:104D6800ABAA2A4307CD133F414B424A1B6812683E
:104D7800D3F8D810D2780131C3F8D810002A62D0FD
:104D88003D4A07EE901AD3ED022A00211268F8EE88
:104D9800E77A9FED3A7A92ED275AD3ED2B4A25EE22
:104DA800075A92ED283A72EEE44AD2ED095AD2ED4A
:104DB8000B3A65EE277A92ED0D4A74EE874A92ED2A
:104DC8000C2A92ED0A7A92ED0E5AC3ED2B2AC4EE04
:104DD800A72AD3ED116A93ED126AC3F8D81062EED0
:104DE800834AC3ED012A75EEE45AC3ED0C4A75EE09
:104DF800E67AC3ED115A65EEA34A25EE877A67EE87
:104E0800845A34EE866AC3ED0E4A67EE826A83EDF1
:104E18000D7AC3ED105A76EE257AC3ED0F6AB4EE1B
:104E2800E75AF1EE10FA19D577EE057A92ED107A75
:104E380083ED125A77EEA67AB4EEE77AF1EE10FA1D
:104E480002D583ED137A704792ED117AB4EEE77AC2
:104E5800F1EE10FAD8BFB0EE677AF2E792ED0F5A8A
:104E6800B4EEE75AF1EE10FAD8BFB0EE675ADBE7B6
:104E780098280410A0280410742904100000B443D2
:104E8800794B7A4A1B68126893ED145AD2ED124A8C
:104E980092ED142A34EEC55AD3ED197AD2ED162ABA
:104EA800D3ED1A5A75EE677A93ED017A25EE022A48
:104EB80092ED156AB0EEC73A92ED014A67EEA22A62
:104EC800D2ED136A72EE255AD3ED133A27EE866AAD
:104ED80023EE044A92ED173A75EEA27AC3ED2E4AF4
:104EE80065EE266AC3ED2F3A83ED2D4AB4EEE73A14
:104EF80083ED162AC3ED156A83ED176AF1EE10FAF1
:104F0800C3ED182A83ED195A08D492ED183AB4EE75
:104F1800E73AF1EE10FAD8BFB0EE673A76EE837A48
:104F2800D2ED191A83ED1A3A77EE867AF4EEE71A7B
:104F3800F1EE10FA08D4D2ED1A1AF4EEE71AF1EEEF
:104F480010FAD8BFF0EE671A93ED1C5A92ED1C2A9E
:104F580033EEC55AD3ED217AD2ED1E2AD2ED1B6A63
:104F680025EE022AD3ED225A75EE677A92ED1D6A74
:104F780092ED1F3A65EE266A72EE255A83ED215AA4
:104F880027EEA25AC3ED1B1A27EE866AC3ED1D6AE7
:104F980083ED1E2A75EE857A83ED205A83ED1F6A0C
:104FA800B4EEE73AF1EE10FA08D492ED203AB4EEF6
:104FB800E73AF1EE10FAD8BFB0EE673A76EE837AA8
:104FC800D2ED212A83ED223A77EE867AF4EEE72AAB
:104FD800F1EE10FA08D4D2ED222AF4EEE72AF1EE27
:104FE80010FAD8BFF0EE672AD2ED2B6A92ED2A3A72
:104FF80027EE267AD2ED057A93ED086AD3ED075AA3
:1050080064EE876A93ED065A27EE637A93ED031AE6
:10501800D3ED051AE3EE836A93ED042AA4EE837AAE
:10502800C3ED232A77EEA66A77EE277A36EE847ADE
:10503800C3ED307A67EE255A83ED317A67EE066A5A
:1050480027EE055AB0EE656AB0EE667AA7EE815A89
:10505800A7EEA16AA7EE827A83ED095A83ED0A6A60
:1050680083ED0B7A704700BF982804107429041048
:10507800464BB7EE007ADFED467A1B68454A93ED5A
:10508800056A1268B4EE676AD2ED096AF1EE10FAA1
:1050980048BFB0EE676AC6EE865AF4EEC75AF1EE1C
:1050A80010FA68DDF0EE475A92ED0A5AF7EE007AE8
:1050B800394985EE067A394BB1F9000093ED005A6B
:1050C80006EE900A3648F8EEE66AE5EE256AFCEE4A
:1050D800E66AB4EEE77A16EE903AF1EE10FA9BB271
:1050E800C2F8C83083863ADDF0EE457AD2ED0B4A35
:1050F800F7EE005AB1F90030C4EE866A284807EE88
:10510800103AB8EEC77A37EE277ABCEEC77A17EEB0
:10511800103AF4EEE56A9BB2C2F8CC30F1EE10FA20
:1051280003870ADCFFEE007AF4EEE76AF1EE10FA84
:1051380054BF25EE265AB1EE455AB1F90030184948
:1051480007EE903AF8EEE77A77EE857AFCEEE77AA2
:1051580017EE903A9BB2C2F8D0308B877047FFEEBB
:10516800007AB4EEE77AF1EE10FA54BF65EE077AEA
:10517800F1EE457ABAE7FFEE007AF4EE675AF1EEFF
:1051880010FA48BFF0EE675A8EE700BF782904107E
:10519800CDCC4C3E98280410BC000010C400001070
:1051A80000000140B24A012013692DE9F041B14DD8
:1051B80043F00403B04C29681361CB6A2278034496
:1051C8002070AE4881F82820CB62AD4A406AAD4BCA
:1051D80008631B689768AC4ED2E903101881D06C3D
:1051E80058815068D980116D9F80998111685880C5
:1051F8001980516D926DD9811A8296F8703013B367
:1052080096F84410F36C89B1013906F11C02DFF8F5
:10521800B0C2C9B2083106EB810152F8047B581CB0
:105228003F688A424CF8237083B2F6D196F8722010
:10523800F364002A00F08B80336EB26C0133934222
:10524800336680F040829148914B01681B694A1C83
:10525800DFF87082C3F38003DFED8E4A02F01F028D
:105268009FED8D5A02608D4A5354FFF7C7FA8C4A56
:105278008C4916688C4A0B6810684A681B68126863
:10528800D0ED017A9B1AD0ED005A0A6B06EE903ADF
:10529800D8F800304F6B93ED084AF8EEE66A93EDC4
:1052A800057AD3ED032A27EE877A93ED063A67EE5F
:1052B800847A12683F68A2EEA57A90ED026AE5EE5C
:1052C800837AD3ED043A93ED074AD21BA3EE867A8C
:1052D800E6EE047A06EE102A8A68B8EEC66AD2EDBF
:1052E800005A8A6B66EEA56A27EE247A67EE857AFD
:1052F800C0ED056AD2ED005AD6F8B42026EE256A2C
:10530800022A80ED066A83ED1C7AC3ED147A00F058
:10531800A380032A00F08180012A29D02B68574AEC
:10532800186B526AD96B121A93F828008A42196CC2
:1053380038BFDA638A42596B88BF1A6411445963CB
:1053480010B1996B0A449A632070BDE8F081F36E3E
:10535800984700283FF477AF012396F84420B169B5
:1053680086F87230F36C01FB12339BB233656AE73F
:10537800B0EE007AD3ED015A96ED075A96ED066A1B
:10538800F4EE476AF1EE10FAF4EEC55A48BFF0EEB3
:10539800476AF1EE10FA40F19980D6ED047A96ED5D
:1053A800005A76EEE74A84EE857AB4EEC76AF1EEE3
:1053B80010FA08DDB5EEC07A9FED436AF1EE10FAF7
:1053C800C8BFB0EE476AF4EEC65A384AD6ED024A6C
:1053D80092ED007AF1EE10FA40F18981E4EE875AF5
:1053E800F4EEC65AF1EE10FA00F38981B0EE656A60
:1053F800C3ED015AB0EEC67AF7EE004A27EE057AF9
:1054080077EE877AC7EEA65AF4EEE45AF1EE10FA70
:1054180040F37881F0EE645AD7E001F06FFE03F0B4
:105428004BF801F025FF224BD8F800101B88214AC1
:105438005B009BB2C1F8C83093861F4B1B885B008A
:105448009BB2C1F8CC3013871C4B1B885B009BB206
:10545800C1F8D030938761E7FFF790FAFFF784FC33
:10546800FFF710FCFFF70CFDFFF702FE56E700BF41
:10547800002400408428041090280410000C0040E8
:10548800181900100C0000100C280410C82804106B
:10549800000802583FCD133F98B9133FA4280410C1
:1054A80074290410CC28041078290410C8000010AE
:1054B8008A360410000001408C3604108E36041021
:1054C800882700109828041000000000D6ED054A2F
:1054D800D6ED011A36EEE45A85EE217AB4EEC76AA3
:1054E800F1EE10FA08DDB5EEC07A1FED096AF1EEAB
:1054F80010FAC8BFB0EE476AF4EEC65A864A96ED6F
:10550800035A92ED007AF1EE10FA40F1E380E5EEED
:10551800075AF4EEC65AF1EE10FA40F3E38083ED31
:10552800016A96ED124A96ED142A34EE674A93ED15
:10553800195AD6ED162AD6ED135A74EE457AD3EDDC
:105548001A3A24EE022A96ED157A96ED173A64EE89
:10555800255A67EEA22A83ED194A32EE234A83EDD3
:10556800162A27EE875AC3ED155AC3ED182A74EE8A
:10557800227A83ED175AB4EEE73AF1EE10FA08D41E
:1055880096ED183AB4EEE73AF1EE10FAD8BFB0EE5D
:10559800673AB0EEC67A83ED1A3A75EE837AB7EEBB
:1055A800004A27EE217A77EE857A74EE874AC3EDB2
:1055B8001B7A74EEA77AC7EEA65AF4EEC45AF1EE37
:1055C80010FA40F39F80F0EE445A544AD3ED027A21
:1055D800C3ED005AD2ED005ADFED516AE5EE867A46
:1055E800F4EEE67AF1EE10FAA8BF77EEE67AF5EE79
:1055F800C07AC3ED027AF1EE10FA05D5DFED486AFC
:1056080077EEA67AC3ED027A4649DFED476A91ED57
:10561800006A464A67EE867A37EEA66AFDEEE75AD2
:1056280076EE266AB8EEE55A15EE901AFDEEC65AE1
:10563800C1F3080177EEC57AF8EEE54A02EB81007E
:10564800BDEEE65A15EE901A90ED014A76EE644AE0
:10565800C1F30801B8EEC56A76EEC66A90ED006A35
:1056680002EB810015EE101A74EE465AC1F30801D8
:10567800A7EEA56A83ED036A27EE066AD0ED007AE5
:10568800D0ED015A02EB810075EEE75AE4EEA57AF7
:10569800C3ED047A67EE277AD0ED005A90ED015AEF
:1056A80083ED096AC3ED0B7A35EE656AF0EE657A2B
:1056B800E6EE867A27EE277AC3ED057A83ED0A7A35
:1056C800FFF7D6FC2AE60022012386F8702086F828
:1056D8007330B8E5E5EE475AF4EEC65AF1EE10FA23
:1056E8003FF51DAFB0EE656AC3ED015A19E7E4EE68
:1056F800C75AF4EEC65AF1EE10FA7FF577AE83ED8D
:10570800016A77E6FFEE007AF4EE675AF1EE10FAD6
:1057180048BFF0EE675A58E7C8000010C0000010F4
:105728000000B443B0150010ABAA2A43CC00001007
:105738000D4BF2EE047A1B6893ED057AB4EEE77A26
:10574800F1EE10FA0DD5094BF7EE007A1B6893EDD0
:10575800017AB4EEE77AF1EE10FA4CBF012000208E
:1057680070470020704700BF78290410982804105B
:10577800254B4FF0010C25491B6808789A6862444C
:10578800F0B5234C9A60234A1871656A147881F839
:1057980000C0DD602CB3204C0026B4F86CC0276E26
:1057A800A7F800C0276FB4F87CC0A7F800C0D4F8E9
:1057B8008070B4F88C403C801670154A9C69526A17
:1057C800521BA242DC6938BF9A61A2421C6988BF99
:1057D800DA6114441C6110B15C6922445A61087092
:1057E800F0BD0D4CB4F86CE0666EA6F800E0666F8C
:1057F800B4F87CE0A6F800E0D4F88460B4F88C40F3
:10580800348082F800C0D8E7842804109028041057
:10581800000C004080290410B4220010704700BF1B
:1058280000F086BF08B502F0B5FEBDE8084000F0FC
:10583800EBBD00BF02F048BF2DE9F047424B0424FE
:105848004249002742481C60FBF71CFFFCF74CF854
:10585800DFF82491FDF71EFA3D46FCF76FF9DFF8F3
:10586800FCA0FBF769FFDFF81481FBF7B9FAFBF737
:105878007FFC3849384A8B6823438B6093682343FD
:105888009360FDF70BF8052234490220FDF73EF836
:10589800142232490320FDF739F814222F492046F3
:1058A800FDF734F83C46FBF799FC4FF4FA70FDF726
:1058B800EFFAFBF7D9FCFDF7D7FBFEF709FF4FF02E
:1058C800E02305216FF07F4219615A61FDF762FB01
:1058D80002F0A4FF00F082FD3B460C22204921483B
:1058E800FDF76AFA20493846FDF788FB1F49012071
:1058F800FDF784FB1E490A20FDF780FB00F018FF26
:105908001C490120FDF77AFBFDF706FBFEF74EFE6A
:10591800D9F82430D9F824600137F31A1C441D44FF
:1059280054450BD8454501D83346F3E73846A5EB2F
:105938000805FEF73DFE00273346EBE7A4EB0A0413
:10594800FDF77AFBEEE700BF7C290410001C4E0E21
:1059580000127A00002002400021024080841E00CC
:105968002D581008809698003D58100825581008A2
:105978002958100879571008000C004000C2EB0B9A
:10598800024A536C23F400435364FEE700000140CD
:10599800FEE700BFFEE700BFFEE700BFDFF834D038
:1059A80000F026F80C480D490D4A002302E0D458AF
:1059B800C4500433C4188C42F9D30A4A0A4C002351
:1059C80001E013600432A242FBD304F0C9F8FFF7E8
:1059D80033FF7047008004100000001018160010F4
:1059E800109C1008F0180010BC380410FEE70000E6
:1059F800074B4FF00161D3F8882042F47002C3F8D6
:105A080088201A6942F010021A619960704700BF35
:105A180000ED00E0F0B5002287B0614E8DF8070078
:105A28008DF80F20738913F0400300F0B6808DF8CD
:105A38001120737C9DF811209A4280F0A980594C5E
:105A480001250BE09DF811300133DBB28DF81130E0
:105A5800727C9DF811309A4240F29A809DF811307C
:105A6800043306EB83031B7A5B06EBD59DF81130F4
:105A7800043306EB83035A7A9DF807309A42E1D142
:105A88009DF81130043306EB8303DB7904E000F062
:105A9800A3FC9DF812300133DBB28DF812309DF86B
:105AA8001130043306EB83039A799DF812309A4239
:105AB800C8D39DF80F3043F001038DF80F3000F084
:105AC8008BFC9DF81230D6F8D02BDBB2D6F8D87BF9
